{
  "address": "0x1253E931B8b2b288B22Af489e335BE9827B5f0fB",
  "abi": [
    {
      "inputs": [
        {
          "internalType": "address",
          "name": "vrfCoordinatorV2",
          "type": "address"
        },
        {
          "internalType": "uint64",
          "name": "subscriptionId",
          "type": "uint64"
        },
        {
          "internalType": "bytes32",
          "name": "gasLane",
          "type": "bytes32"
        },
        {
          "internalType": "uint256",
          "name": "interval",
          "type": "uint256"
        },
        {
          "internalType": "uint256",
          "name": "entranceFee",
          "type": "uint256"
        },
        {
          "internalType": "uint32",
          "name": "callbackGasLimit",
          "type": "uint32"
        }
      ],
      "stateMutability": "nonpayable",
      "type": "constructor"
    },
    {
      "inputs": [
        {
          "internalType": "address",
          "name": "have",
          "type": "address"
        },
        {
          "internalType": "address",
          "name": "want",
          "type": "address"
        }
      ],
      "name": "OnlyCoordinatorCanFulfill",
      "type": "error"
    },
    {
      "inputs": [
        {
          "internalType": "uint256",
          "name": "balance",
          "type": "uint256"
        },
        {
          "internalType": "uint256",
          "name": "playersCount",
          "type": "uint256"
        },
        {
          "internalType": "uint256",
          "name": "raffleState",
          "type": "uint256"
        }
      ],
      "name": "Raffle_UpKeepNotNeeded",
      "type": "error"
    },
    {
      "inputs": [],
      "name": "Raffle__NotEnoughETHEntered",
      "type": "error"
    },
    {
      "inputs": [],
      "name": "Raffle__NotOpen",
      "type": "error"
    },
    {
      "inputs": [],
      "name": "Raffle__TransactionFailed",
      "type": "error"
    },
    {
      "anonymous": false,
      "inputs": [
        {
          "indexed": true,
          "internalType": "address",
          "name": "player",
          "type": "address"
        }
      ],
      "name": "RaffleEnter",
      "type": "event"
    },
    {
      "anonymous": false,
      "inputs": [
        {
          "indexed": true,
          "internalType": "uint256",
          "name": "requestId",
          "type": "uint256"
        }
      ],
      "name": "RequestedRaffleWinner",
      "type": "event"
    },
    {
      "anonymous": false,
      "inputs": [
        {
          "indexed": true,
          "internalType": "address",
          "name": "winner",
          "type": "address"
        }
      ],
      "name": "WinnerPicked",
      "type": "event"
    },
    {
      "inputs": [
        {
          "internalType": "bytes",
          "name": "",
          "type": "bytes"
        }
      ],
      "name": "checkUpkeep",
      "outputs": [
        {
          "internalType": "bool",
          "name": "upkeepNeeded",
          "type": "bool"
        },
        {
          "internalType": "bytes",
          "name": "",
          "type": "bytes"
        }
      ],
      "stateMutability": "view",
      "type": "function"
    },
    {
      "inputs": [],
      "name": "enterRaffle",
      "outputs": [],
      "stateMutability": "payable",
      "type": "function"
    },
    {
      "inputs": [],
      "name": "getEntranceFee",
      "outputs": [
        {
          "internalType": "uint256",
          "name": "",
          "type": "uint256"
        }
      ],
      "stateMutability": "view",
      "type": "function"
    },
    {
      "inputs": [],
      "name": "getGasLane",
      "outputs": [
        {
          "internalType": "bytes32",
          "name": "",
          "type": "bytes32"
        }
      ],
      "stateMutability": "view",
      "type": "function"
    },
    {
      "inputs": [],
      "name": "getInterval",
      "outputs": [
        {
          "internalType": "uint256",
          "name": "",
          "type": "uint256"
        }
      ],
      "stateMutability": "view",
      "type": "function"
    },
    {
      "inputs": [],
      "name": "getLatestTimeStamp",
      "outputs": [
        {
          "internalType": "uint256",
          "name": "",
          "type": "uint256"
        }
      ],
      "stateMutability": "view",
      "type": "function"
    },
    {
      "inputs": [],
      "name": "getNumWords",
      "outputs": [
        {
          "internalType": "uint16",
          "name": "",
          "type": "uint16"
        }
      ],
      "stateMutability": "pure",
      "type": "function"
    },
    {
      "inputs": [],
      "name": "getNumberOfPlayers",
      "outputs": [
        {
          "internalType": "uint256",
          "name": "",
          "type": "uint256"
        }
      ],
      "stateMutability": "view",
      "type": "function"
    },
    {
      "inputs": [
        {
          "internalType": "uint256",
          "name": "index",
          "type": "uint256"
        }
      ],
      "name": "getPlayer",
      "outputs": [
        {
          "internalType": "address",
          "name": "",
          "type": "address"
        }
      ],
      "stateMutability": "view",
      "type": "function"
    },
    {
      "inputs": [],
      "name": "getRaffleState",
      "outputs": [
        {
          "internalType": "enum Raffle.RaffleState",
          "name": "",
          "type": "uint8"
        }
      ],
      "stateMutability": "view",
      "type": "function"
    },
    {
      "inputs": [],
      "name": "getRecentWinner",
      "outputs": [
        {
          "internalType": "address",
          "name": "",
          "type": "address"
        }
      ],
      "stateMutability": "view",
      "type": "function"
    },
    {
      "inputs": [],
      "name": "getRequestConfirmations",
      "outputs": [
        {
          "internalType": "uint256",
          "name": "",
          "type": "uint256"
        }
      ],
      "stateMutability": "pure",
      "type": "function"
    },
    {
      "inputs": [
        {
          "internalType": "bytes",
          "name": "",
          "type": "bytes"
        }
      ],
      "name": "performUpkeep",
      "outputs": [],
      "stateMutability": "nonpayable",
      "type": "function"
    },
    {
      "inputs": [
        {
          "internalType": "uint256",
          "name": "requestId",
          "type": "uint256"
        },
        {
          "internalType": "uint256[]",
          "name": "randomWords",
          "type": "uint256[]"
        }
      ],
      "name": "rawFulfillRandomWords",
      "outputs": [],
      "stateMutability": "nonpayable",
      "type": "function"
    }
  ],
  "transactionHash": "0x1911018fbb9431ffe2ab66082c967cfa8a03c9f56a1a68d9e1b94bcff10a623f",
  "args": [
    "0x8103B0A8A00be2DDC778e6e7eaa21791Cd364625",
    "776",
    "0x474e34a077df58807dbe9c96d3c009b23b3c6d0cce433e59bbf5b34f823bc56c",
    "30",
    "10000000000000000",
    "500000"
  ],
  "numDeployments": 3,
  "solcInputHash": "cb085f80a00aac4829c52f663b9f9f4b",
  "bytecode": "0x6101606040523480156200001257600080fd5b5060405162001b2638038062001b26833981810160405281019062000038919062000294565b858073ffffffffffffffffffffffffffffffffffffffff1660808173ffffffffffffffffffffffffffffffffffffffff1681525050508573ffffffffffffffffffffffffffffffffffffffff1660a08173ffffffffffffffffffffffffffffffffffffffff16815250508360c081815250508261014081815250508467ffffffffffffffff1660e08167ffffffffffffffff16815250508161012081815250506000600160006101000a81548160ff0219169083600181111562000101576200010062000330565b5b0217905550426002819055508063ffffffff166101008163ffffffff16815250505050505050506200035f565b600080fd5b600073ffffffffffffffffffffffffffffffffffffffff82169050919050565b6000620001608262000133565b9050919050565b620001728162000153565b81146200017e57600080fd5b50565b600081519050620001928162000167565b92915050565b600067ffffffffffffffff82169050919050565b620001b78162000198565b8114620001c357600080fd5b50565b600081519050620001d781620001ac565b92915050565b6000819050919050565b620001f281620001dd565b8114620001fe57600080fd5b50565b6000815190506200021281620001e7565b92915050565b6000819050919050565b6200022d8162000218565b81146200023957600080fd5b50565b6000815190506200024d8162000222565b92915050565b600063ffffffff82169050919050565b6200026e8162000253565b81146200027a57600080fd5b50565b6000815190506200028e8162000263565b92915050565b60008060008060008060c08789031215620002b457620002b36200012e565b5b6000620002c489828a0162000181565b9650506020620002d789828a01620001c6565b9550506040620002ea89828a0162000201565b9450506060620002fd89828a016200023c565b93505060806200031089828a016200023c565b92505060a06200032389828a016200027d565b9150509295509295509295565b7f4e487b7100000000000000000000000000000000000000000000000000000000600052602160045260246000fd5b60805160a05160c05160e051610100516101205161014051611750620003d6600039600081816108250152610990015260008181610340015261043d015260006106eb015260006106c80152600081816106a701526109b80152600061066b01526000818161037d01526103d101526117506000f3fe6080604052600436106100dd5760003560e01c806353a2c19a1161007f57806391ad27b41161005957806391ad27b41461027e578063c19dd76b146102a9578063e55ae4e8146102d4578063fd6673f514610311576100dd565b806353a2c19a146101ea5780635f1b0fd8146102155780636e04ff0d14610240576100dd565b80632cfcc539116100bb5780632cfcc53914610161578063320229eb1461016b5780634585e33b14610196578063473f1ddc146101bf576100dd565b806309bc33a7146100e2578063115cbaf51461010d5780631fe543e314610138575b600080fd5b3480156100ee57600080fd5b506100f761033c565b6040516101049190610de4565b60405180910390f35b34801561011957600080fd5b50610122610364565b60405161012f9190610e76565b60405180910390f35b34801561014457600080fd5b5061015f600480360381019061015a919061102a565b61037b565b005b61016961043b565b005b34801561017757600080fd5b506101806105aa565b60405161018d9190610de4565b60405180910390f35b3480156101a257600080fd5b506101bd60048036038101906101b891906110e1565b6105b4565b005b3480156101cb57600080fd5b506101d46107a4565b6040516101e1919061116f565b60405180910390f35b3480156101f657600080fd5b506101ff6107cc565b60405161020c91906111a7565b60405180910390f35b34801561022157600080fd5b5061022a6107d5565b6040516102379190610de4565b60405180910390f35b34801561024c57600080fd5b5061026760048036038101906102629190611277565b6107e2565b60405161027592919061135a565b60405180910390f35b34801561028a57600080fd5b5061029361098c565b6040516102a09190610de4565b60405180910390f35b3480156102b557600080fd5b506102be6109b4565b6040516102cb91906113a3565b60405180910390f35b3480156102e057600080fd5b506102fb60048036038101906102f691906113be565b6109dc565b604051610308919061116f565b60405180910390f35b34801561031d57600080fd5b50610326610a23565b6040516103339190610de4565b60405180910390f35b60007f0000000000000000000000000000000000000000000000000000000000000000905090565b6000600160009054906101000a900460ff16905090565b7f000000000000000000000000000000000000000000000000000000000000000073ffffffffffffffffffffffffffffffffffffffff163373ffffffffffffffffffffffffffffffffffffffff161461042d57337f00000000000000000000000000000000000000000000000000000000000000006040517f1cf993f40000000000000000000000000000000000000000000000000000000081526004016104249291906113eb565b60405180910390fd5b6104378282610a2f565b5050565b7f0000000000000000000000000000000000000000000000000000000000000000341015610495576040517fbd4e069500000000000000000000000000000000000000000000000000000000815260040160405180910390fd5b600060018111156104a9576104a8610dff565b5b600160009054906101000a900460ff1660018111156104cb576104ca610dff565b5b14610502576040517f1425571c00000000000000000000000000000000000000000000000000000000815260040160405180910390fd5b6000339080600181540180825580915050600190039060005260206000200160009091909190916101000a81548173ffffffffffffffffffffffffffffffffffffffff021916908373ffffffffffffffffffffffffffffffffffffffff1602179055503373ffffffffffffffffffffffffffffffffffffffff167f0805e1d667bddb8a95f0f09880cf94f403fb596ce79928d9f29b74203ba284d460405160405180910390a2565b6000600254905090565b60006105ce604051806020016040528060008152506107e2565b5090508061063d5747600080549050600160009054906101000a900460ff1660018111156105ff576105fe610dff565b5b6040517fc61de3e100000000000000000000000000000000000000000000000000000000815260040161063493929190611414565b60405180910390fd5b60018060006101000a81548160ff0219169083600181111561066257610661610dff565b5b021790555060007f000000000000000000000000000000000000000000000000000000000000000073ffffffffffffffffffffffffffffffffffffffff16635d3b1d307f00000000000000000000000000000000000000000000000000000000000000007f000000000000000000000000000000000000000000000000000000000000000060037f000000000000000000000000000000000000000000000000000000000000000060016040518663ffffffff1660e01b815260040161072c9594939291906114c8565b6020604051808303816000875af115801561074b573d6000803e3d6000fd5b505050506040513d601f19601f8201168201806040525081019061076f9190611530565b9050807fcd6e45c8998311cab7e9d4385596cac867e20a0587194b954fa3a731c93ce78b60405160405180910390a250505050565b600060018054906101000a900473ffffffffffffffffffffffffffffffffffffffff16905090565b60006001905090565b6000600361ffff16905090565b600060606000600160009054906101000a900460ff16600181111561080a57610809610dff565b5b6000600181111561081e5761081d610dff565b5b14905060007f000000000000000000000000000000000000000000000000000000000000000060025442610852919061158c565b10159050600080600080549050119050600080471190506108a86040518060400160405280600681526020017f69734f70656e000000000000000000000000000000000000000000000000000081525085610c5f565b6108e76040518060400160405280600a81526020017f74696d655061737365640000000000000000000000000000000000000000000081525084610c5f565b6109266040518060400160405280600a81526020017f686173506c61796572730000000000000000000000000000000000000000000081525083610c5f565b6109656040518060400160405280600a81526020017f68617342616c616e63650000000000000000000000000000000000000000000081525082610c5f565b83801561096f5750825b80156109785750805b80156109815750815b955050505050915091565b60007f0000000000000000000000000000000000000000000000000000000000000000905090565b60007f0000000000000000000000000000000000000000000000000000000000000000905090565b60008082815481106109f1576109f06115c0565b5b9060005260206000200160009054906101000a900473ffffffffffffffffffffffffffffffffffffffff169050919050565b60008080549050905090565b6000808054905082600081518110610a4a57610a496115c0565b5b6020026020010151610a5c919061161e565b90506000808281548110610a7357610a726115c0565b5b9060005260206000200160009054906101000a900473ffffffffffffffffffffffffffffffffffffffff169050806001806101000a81548173ffffffffffffffffffffffffffffffffffffffff021916908373ffffffffffffffffffffffffffffffffffffffff1602179055506000600160006101000a81548160ff02191690836001811115610b0657610b05610dff565b5b0217905550600067ffffffffffffffff811115610b2657610b25610ee7565b5b604051908082528060200260200182016040528015610b545781602001602082028036833780820191505090505b5060009080519060200190610b6a929190610d24565b504260028190555060008173ffffffffffffffffffffffffffffffffffffffff1647604051610b9890611680565b60006040518083038185875af1925050503d8060008114610bd5576040519150601f19603f3d011682016040523d82523d6000602084013e610bda565b606091505b5050905080610c15576040517f8dea0f0700000000000000000000000000000000000000000000000000000000815260040160405180910390fd5b8173ffffffffffffffffffffffffffffffffffffffff167f5b690ec4a06fe979403046eaeea5b3ce38524683c3001f662c8b5a829632f7df60405160405180910390a25050505050565b610cf78282604051602401610c759291906116ea565b6040516020818303038152906040527fc3b55635000000000000000000000000000000000000000000000000000000007bffffffffffffffffffffffffffffffffffffffffffffffffffffffff19166020820180517bffffffffffffffffffffffffffffffffffffffffffffffffffffffff8381831617835250505050610cfb565b5050565b60008151905060006a636f6e736f6c652e6c6f679050602083016000808483855afa5050505050565b828054828255906000526020600020908101928215610d9d579160200282015b82811115610d9c5782518260006101000a81548173ffffffffffffffffffffffffffffffffffffffff021916908373ffffffffffffffffffffffffffffffffffffffff16021790555091602001919060010190610d44565b5b509050610daa9190610dae565b5090565b5b80821115610dc7576000816000905550600101610daf565b5090565b6000819050919050565b610dde81610dcb565b82525050565b6000602082019050610df96000830184610dd5565b92915050565b7f4e487b7100000000000000000000000000000000000000000000000000000000600052602160045260246000fd5b60028110610e3f57610e3e610dff565b5b50565b6000819050610e5082610e2e565b919050565b6000610e6082610e42565b9050919050565b610e7081610e55565b82525050565b6000602082019050610e8b6000830184610e67565b92915050565b6000604051905090565b600080fd5b600080fd5b610eae81610dcb565b8114610eb957600080fd5b50565b600081359050610ecb81610ea5565b92915050565b600080fd5b6000601f19601f8301169050919050565b7f4e487b7100000000000000000000000000000000000000000000000000000000600052604160045260246000fd5b610f1f82610ed6565b810181811067ffffffffffffffff82111715610f3e57610f3d610ee7565b5b80604052505050565b6000610f51610e91565b9050610f5d8282610f16565b919050565b600067ffffffffffffffff821115610f7d57610f7c610ee7565b5b602082029050602081019050919050565b600080fd5b6000610fa6610fa184610f62565b610f47565b90508083825260208201905060208402830185811115610fc957610fc8610f8e565b5b835b81811015610ff25780610fde8882610ebc565b845260208401935050602081019050610fcb565b5050509392505050565b600082601f83011261101157611010610ed1565b5b8135611021848260208601610f93565b91505092915050565b6000806040838503121561104157611040610e9b565b5b600061104f85828601610ebc565b925050602083013567ffffffffffffffff8111156110705761106f610ea0565b5b61107c85828601610ffc565b9150509250929050565b600080fd5b60008083601f8401126110a1576110a0610ed1565b5b8235905067ffffffffffffffff8111156110be576110bd611086565b5b6020830191508360018202830111156110da576110d9610f8e565b5b9250929050565b600080602083850312156110f8576110f7610e9b565b5b600083013567ffffffffffffffff81111561111657611115610ea0565b5b6111228582860161108b565b92509250509250929050565b600073ffffffffffffffffffffffffffffffffffffffff82169050919050565b60006111598261112e565b9050919050565b6111698161114e565b82525050565b60006020820190506111846000830184611160565b92915050565b600061ffff82169050919050565b6111a18161118a565b82525050565b60006020820190506111bc6000830184611198565b92915050565b600080fd5b600067ffffffffffffffff8211156111e2576111e1610ee7565b5b6111eb82610ed6565b9050602081019050919050565b82818337600083830152505050565b600061121a611215846111c7565b610f47565b905082815260208101848484011115611236576112356111c2565b5b6112418482856111f8565b509392505050565b600082601f83011261125e5761125d610ed1565b5b813561126e848260208601611207565b91505092915050565b60006020828403121561128d5761128c610e9b565b5b600082013567ffffffffffffffff8111156112ab576112aa610ea0565b5b6112b784828501611249565b91505092915050565b60008115159050919050565b6112d5816112c0565b82525050565b600081519050919050565b600082825260208201905092915050565b60005b838110156113155780820151818401526020810190506112fa565b60008484015250505050565b600061132c826112db565b61133681856112e6565b93506113468185602086016112f7565b61134f81610ed6565b840191505092915050565b600060408201905061136f60008301856112cc565b81810360208301526113818184611321565b90509392505050565b6000819050919050565b61139d8161138a565b82525050565b60006020820190506113b86000830184611394565b92915050565b6000602082840312156113d4576113d3610e9b565b5b60006113e284828501610ebc565b91505092915050565b60006040820190506114006000830185611160565b61140d6020830184611160565b9392505050565b60006060820190506114296000830186610dd5565b6114366020830185610dd5565b6114436040830184610dd5565b949350505050565b600067ffffffffffffffff82169050919050565b6114688161144b565b82525050565b600063ffffffff82169050919050565b6114878161146e565b82525050565b6000819050919050565b60006114b26114ad6114a88461118a565b61148d565b61146e565b9050919050565b6114c281611497565b82525050565b600060a0820190506114dd6000830188611394565b6114ea602083018761145f565b6114f76040830186611198565b611504606083018561147e565b61151160808301846114b9565b9695505050505050565b60008151905061152a81610ea5565b92915050565b60006020828403121561154657611545610e9b565b5b60006115548482850161151b565b91505092915050565b7f4e487b7100000000000000000000000000000000000000000000000000000000600052601160045260246000fd5b600061159782610dcb565b91506115a283610dcb565b92508282039050818111156115ba576115b961155d565b5b92915050565b7f4e487b7100000000000000000000000000000000000000000000000000000000600052603260045260246000fd5b7f4e487b7100000000000000000000000000000000000000000000000000000000600052601260045260246000fd5b600061162982610dcb565b915061163483610dcb565b925082611644576116436115ef565b5b828206905092915050565b600081905092915050565b50565b600061166a60008361164f565b91506116758261165a565b600082019050919050565b600061168b8261165d565b9150819050919050565b600081519050919050565b600082825260208201905092915050565b60006116bc82611695565b6116c681856116a0565b93506116d68185602086016112f7565b6116df81610ed6565b840191505092915050565b6000604082019050818103600083015261170481856116b1565b905061171360208301846112cc565b939250505056fea26469706673582212205f11a63e05cd3c110fe4e22c03b6a2e0940449514f78d8fb6d2393325a27b5a064736f6c63430008120033",
  "devdoc": {
    "kind": "dev",
    "methods": {
      "checkUpkeep(bytes)": {
        "details": "This is the function that the Chainlink Keeper nodes call they look for `upkeepNeeded` to return True. the following should be true for this to return true: 1. The time interval has passed between raffle runs. 2. The lottery is open. 3. The contract has ETH. 4. Implicity, your subscription is funded with LINK."
      }
    },
    "version": 1
  },
  "userdoc": {
    "kind": "user",
    "methods": {},
    "version": 1
  },
  "storageLayout": {
    "storage": [
      {
        "astId": 200,
        "contract": "contracts/Raffle.sol:Raffle",
        "label": "s_players",
        "offset": 0,
        "slot": "0",
        "type": "t_array(t_address_payable)dyn_storage"
      },
      {
        "astId": 213,
        "contract": "contracts/Raffle.sol:Raffle",
        "label": "s_raffleState",
        "offset": 0,
        "slot": "1",
        "type": "t_enum(RaffleState)192"
      },
      {
        "astId": 215,
        "contract": "contracts/Raffle.sol:Raffle",
        "label": "s_recentWinnerAddress",
        "offset": 1,
        "slot": "1",
        "type": "t_address"
      },
      {
        "astId": 217,
        "contract": "contracts/Raffle.sol:Raffle",
        "label": "s_lastTimeStamp",
        "offset": 0,
        "slot": "2",
        "type": "t_uint256"
      }
    ],
    "types": {
      "t_address": {
        "encoding": "inplace",
        "label": "address",
        "numberOfBytes": "20"
      },
      "t_address_payable": {
        "encoding": "inplace",
        "label": "address payable",
        "numberOfBytes": "20"
      },
      "t_array(t_address_payable)dyn_storage": {
        "base": "t_address_payable",
        "encoding": "dynamic_array",
        "label": "address payable[]",
        "numberOfBytes": "32"
      },
      "t_enum(RaffleState)192": {
        "encoding": "inplace",
        "label": "enum Raffle.RaffleState",
        "numberOfBytes": "1"
      },
      "t_uint256": {
        "encoding": "inplace",
        "label": "uint256",
        "numberOfBytes": "32"
      }
    }
  }
}